:020000040000FA
:0600000080EF01F0120088
:020006000000F8
:08000800D9CFE6FFE1CFD9FFDB
:10001000E652DF6A0A0EDF5C07E2320EE66E8EEC15
:1000200001F0E552DF2AF6D7E552E552E7CFD9FFD6
:1000300012004B0EE66E60EC01F0E55200D01200AB
:10004000D9CFE6FFE1CFD9FFE652DF6A140EDF5CBD
:1000500007E2190EE66E60EC01F0E552DF2AF6D7F2
:1000600000D0E552E552E7CFD9FF1200D9CFE6FF25
:10007000E1CFD9FFE652DF6AFE0EDB50D880DF54B5
:1000800007E3050EE66E60EC01F0E552DF2AF4D7D7
:1000900000D0E552E552E7CFD9FF1200D9CFE6FFF5
:1000A000E1CFD9FF020EE126DF6AFE0EDB50DF5CF6
:1000B00013E2010EDB6A0A0EF36E010EDBCFF4FFD2
:1000C000F350F45C07E2640EE66ED0DFE552010EF9
:1000D000DB2AF1D7DF2AE9D7020EE15C02E2E16A0E
:0C00E000E552E16EE552E7CFD9FF1200B7
:0400EC00D9CFE6FF83
:1000F000E1CFD9FF956A9290929292949296FE0ED9
:10010000DB0402E180800DD0FE0EDB50020802E12C
:10011000808207D0FE0EDB50030802E1808401D00C
:100120008086E552E7CFD9FF1200D9CFE6FFE1CFB5
:10013000D9FFFD0EDBCFE6FFD9DFE552FE0EDB5027
:10014000090A2EE0010A29E00F0A24E0010A1FE053
:10015000030A1AE0010A15E0070A10E0010A0BE0A1
:10016000030A06E0010A01E01ED0C00E836E1BD018
:10017000F90E836E18D0A40E836E15D0B00E836E68
:1001800012D0990E836E0FD0920E836E0CD0820E19
:10019000836E09D0F80E836E06D0800E836E03D076
:0E01A000900E836E00D0E552E7CFD9FF12001B
:0201AE00060E3B
:1001B000F66E000EF76E000EF86E00010900F550A5
:1001C000656F0900F550666F03E1656701D03DD0AA
:1001D0000900F550606F0900F550616F0900F55096
:1001E000626F09000900F550E96E0900F550EA6EEA
:1001F000090009000900F550636F0900F550646FAC
:1002000009000900F6CF67F0F7CF68F0F8CF69F082
:1002100060C0F6FF61C0F7FF62C0F8FF00016353E2
:1002200002E1645307E00900F550EE6E6307F8E25F
:100230006407F9D767C0F6FF68C0F7FF69C0F8FF29
:0C02400000016507000E665BBFD71200CE
:04024C00D9CFE6FF21
:10025000E1CFD9FF020EE126DF6ADE52010EDD6E2C
:10026000010EDBCFE6FFDFCFE6FF95EC00F0E552B5
:10027000E552020EE66E4EEC00F0E552DF2ADFCFCB
:1002800003F0090EE76E0318E8AE02D0033403D082
:10029000E750D8800354E4E2010EDB2ADF6ADB502A
:1002A0000408DEE2D9D7F36AF46A020EE15C03E2E5
:1002B00000D0E16AE552E16EE552E7CFD9FF1200C6
:1002C000FF0EE350026E480E01D04C0EE76EE72E93
:1002D000FED7E76AE72EFED7022EF7D700001200FE
:1002E000000EF36E00EE00F0080E01D81200EA6076
:1002F00002D0EE6AFCD7F350E9601200EE6AFCD738
:1003000013EE00F023EE00F0F86A019CD7EC00F049
:0C03100099EC01F026EC01F0FBD7120084
:04031C00FF0EE3509D
:10032000E84E1200000000D000D000D0E82EFAD72E
:020330001200B9
:020332001200B7
:020000040030CA
:010001000CF2
:0100020019E4
:010003001EDE
:010005008179
:010006008079
:010008000FE8
:00000001FF
