:0400000011EF3FF0CD
:107E1A00020E1AEC3FF012000E6A0D6A0C6A0B6A27
:107E2A00000EF86E000179EF3FF0026E0D0E016E42
:107E3A00FC0EE82EFED7012EFCD7022EF7D7120031
:107E4A00016E000E956E929092929294929601040F
:107E5A00D8A402D080800DD00150020AD8A402D042
:107E6A00808207D00150030AD8A402D0808401D0AE
:107E7A0080861200036E025025EC3FF015D03F0EAB
:107E8A0011D0060E0FD05B0E0DD04F0E0BD0660E22
:107E9A0009D06D0E07D07D0E05D0070E03D07F0ED8
:107EAA0001D06F0E836E1FD00350000AD8B4E7D7F3
:107EBA00010AD8B4E6D7030AD8B4E5D7010AD8B478
:107ECA00E4D7070AD8B4E3D7010AD8B4E2D7030A39
:107EDA00D8B4E1D7010AD8B4E0D70F0AD8B4DFD7AB
:107EEA00010AD8B4DED71200000E0A6E000E096E1F
:107EFA001ED0010E026E0B503FEC3FF00DEC3FF02E
:107F0A00020E026E0C503FEC3FF00DEC3FF0030EF8
:107F1A00026E0D503FEC3FF00DEC3FF0040E026E86
:107F2A000E503FEC3FF00DEC3FF0094A0A2A0A5086
:107F3A00800A800F0B0ED8B4095CD8A0DAD7000EDD
:107F4A00026E0B0E016E000E046E0C0E036E000E16
:107F5A00066E0D0E056E000E086E0E0E076EB7EC5D
:107F6A003FF0C2D701C0D9FF02C0DAFFDF2A0A0EEA
:107F7A0001C0D9FF02C0DAFFDF623CD003C0D9FFDB
:107F8A0004C0DAFFDF2A01C0D9FF02C0DAFF000EFF
:107F9A00DF6E0A0E03C0D9FF04C0DAFFDF622AD0FF
:107FAA0005C0D9FF06C0DAFFDF2A03C0D9FF04C023
:107FBA00DAFF000EDF6E0A0E05C0D9FF06C0DAFF2F
:107FCA00DF6218D007C0D9FF08C0DAFFDF2A05C070
:107FDA00D9FF06C0DAFF000EDF6E0A0E07C0D9FF0E
:107FEA0008C0DAFFDF6206D007C0D9FF08C0DAFF8F
:067FFA00000EDF6E120014
:020000040020DA
:08000000FFFFFFFFFFFFFFFF00
:020000040030CA
:0E000000040C1F1EFF8081FF0FC00FE00F4099
:00000001FF
