:020000040000FA
:060000002EEF02F01200D9
:0A0006000100900400006A000000F1
:0400100004000000E8
:0C001400D9CFE6FFE1CFD9FFE652DF6A4A
:100020000A0EDF5C07E2320EE66E3CEC02F0E552AF
:10003000DF2AF6D7E552E552E7CFD9FF12004B0E83
:10004000E66E0EEC02F0E55200D01200D9CFE6FFCA
:10005000E1CFD9FFE652DF6A140EDF5C07E2190E2A
:10006000E66E0EEC02F0E552DF2AF6D700D0E5523C
:10007000E552E7CFD9FF1200D9CFE6FFE1CFD9FF94
:10008000E652DF6AFE0EDB50D880DF5407E3050E30
:10009000E66E0EEC02F0E552DF2AF4D700D0E5520E
:1000A000E552E7CFD9FF1200D9CFE6FFE1CFD9FF64
:1000B000020EE126DF6AFE0EDB50DF5C13E2010E6A
:1000C000DB6A0A0EF36E010EDBCFF4FFF350F45C33
:1000D00007E2640EE66ED0DFE552010EDB2AF1D7AF
:1000E000DF2AE9D7020EE15C02E2E16AE552E16E45
:1000F000E552E7CFD9FF1200020EE66EF7EC01F0F1
:04010000E5521200B2
:0C010400D9CFE6FFE1CFD9FFFD0EDBCF25
:10011000E9FFFE0EDBCFEAFFEF2AFD0EDBCFE9FFA2
:10012000FE0EDBCFEAFFEF500A084CE1FB0EDBCFFF
:10013000E9FFFC0EDBCFEAFFEF2AFD0EDBCFE9FF84
:10014000FE0EDBCFEAFFEF6AFB0EDBCFE9FFFC0E12
:10015000DBCFEAFFEF500A0835E1F90EDBCFE9FF0C
:10016000FA0EDBCFEAFFEF2AFB0EDBCFE9FFFC0E36
:10017000DBCFEAFFEF6AF90EDBCFE9FFFA0EDBCF48
:10018000EAFFEF500A081EE1F70EDBCFE9FFF80E99
:10019000DBCFEAFFEF2AF90EDBCFE9FFFA0EDBCF68
:1001A000EAFFEF6AF70EDBCFE9FFF80EDBCFEAFFDD
:1001B000EF500A0807E1F70EDBCFE9FFF80EDBCFBF
:0C01C000EAFFEF6AE552E7CFD9FF12001A
:0401CC00D9CFE6FFA2
:1001D000E1CFD9FF956A9290929292949296FE0EF8
:1001E000DB0402E180800DD0FE0EDB50020802E14C
:1001F000808207D0FE0EDB50030802E1808401D02C
:100200008086E552E7CFD9FF1200D9CFE6FFE1CFD4
:10021000D9FFFD0EDBCFE6FFD9DFE552FE0EDB5046
:10022000090A2EE0010A29E00F0A24E0010A1FE072
:10023000030A1AE0010A15E0070A10E0010A0BE0C0
:10024000030A06E0010A01E01ED0C00E836E1BD037
:10025000F90E836E18D0A40E836E15D0B00E836E87
:1002600012D0990E836E0FD0920E836E0CD0820E38
:10027000836E09D0F80E836E06D0800E836E03D095
:0E028000900E836E00D0E552E7CFD9FF12003A
:02028E00D9CFC6
:10029000E6FFE1CFD9FF020EE126DE6ADD6ADECF9E
:1002A00002F0DDCF03F0033404E202500A08000E2E
:1002B00003542DE3010EE66E6AC0E6FF05EC01F083
:1002C000E552E5527CEC00F0020EE66E6BC0E6FFF4
:1002D00005EC01F0E552E5527CEC00F0030EE66E11
:1002E0006CC0E6FF05EC01F0E552E5527CEC00F055
:1002F000040EE66E6DC0E6FF05EC01F0E552E55236
:100300007CEC00F0DF2A010E01E3DB2AC8D76D0E7A
:10031000E66E000EE66E6C0EE66E000EE66E6B0E7E
:10032000E66E000EE66E6A0EE66E000EE66E82EC7B
:1003300000F0026E080EE15E0250AFD7020EE15CE3
:1003400002E2E16AE552E16EE552E7CFD9FF120021
:10035000060EF66E000EF76E000EF86E0001090034
:10036000F550656F0900F550666F03E1656701D0D0
:100370003DD00900F550606F0900F550616F09002C
:10038000F550626F09000900F550E96E0900F5505B
:10039000EA6E090009000900F550636F0900F55085
:1003A000646F09000900F6CF67F0F7CF68F0F8CF67
:1003B00069F060C0F6FF61C0F7FF62C0F8FF00019E
:1003C000635302E1645307E00900F550EE6E6307E2
:1003D000F8E26407F9D767C0F6FF68C0F7FF69C0A5
:0E03E000F8FF00016507000E665BBFD7120034
:0203EE00FF0E00
:1003F000E350056EEF0E01D0F30EE76EE72EFEEF31
:1004000001F00C0E046EE76AE72E04EF02F0042EF2
:0C04100003EF02F0052EFCEF01F01200DB
:04041C00FF0EE3509C
:10042000056E480E01D04C0EE76EE72EFED7E76A48
:0C043000E72EFED7052EF7D700001200C3
:04043C00000EF36E4D
:1004400000EE00F0080E01D81200EA6002D0EE6A59
:0C045000FCD7F350E9601200EE6AFCD704
:04045C0013EE00F0AB
:1004600023EE00F0F86A019CA8EC01F047EC02F0E2
:0804700047EC01F0FBD712007C
:08047800FF0EE350E84E1200F4
:0E048000000000D000D000D0E82EFAD7120005
:02048E0012005A
:040490000000000068
:020000040030CA
:010001000CF2
:0100020019E4
:010003001EDE
:010005008179
:010006008079
:010008000FE8
:00000001FF
