:040000000CEF00F011
:10000800FACF49F0FBCF4AF0E9CF4BF0A2ED02F06E
:100018000FEF04F0000E00018D6F340E00018C6F9D
:100028003F508CC0D9FF8DC0DAFFDF6228D00001B5
:1000380020EE01F000018C51D92600018D51DA2201
:100048003E50DF621CD0000120EE02F000018C510E
:10005800D92600018D51DA223D50DF6210D000010F
:1000680020EE03F000018C51D92600018D51DA22CF
:100078003C50DF6204D0010E26EC05F033D00001BD
:1000880020EE04F000018C51D92600018D51DA22AE
:100098003F50DF6227D0000120EE05F000018C51AF
:1000A800D92600018D51DA223E50DF621BD00001B3
:1000B80020EE06F000018C51D92600018D51DA227C
:1000C8003D50DF620FD0000120EE07F000018C5197
:1000D800D92600018D51DA223C50DF6203D0000E90
:1000E80026EC05F0000E00018B6F000E00018A6FF0
:1000F80023D0010E0001886F3C50EBEC04F0D8ECE3
:1001080005F0020E0001886F3D50EBEC04F0D8ECCE
:1001180005F0030E0001886F3E50EBEC04F0D8ECBC
:1001280005F0040E0001886F3F50EBEC04F0D8ECAA
:1001380005F000018A4B8B2B00018B51800A800F40
:100148003F0ED8B48A5DD8B01200D3D7000E466EE1
:10015800340E456E3F5045C0D9FF46C0DAFFDF6216
:100168001FD020EE01F04550D9264650DA223E50E5
:10017800DF6216D020EE02F04550D9264650DA222A
:100188003D50DF620DD020EE03F04550D926465091
:10019800DA223C50DF6204D0010E66EC05F027D06D
:1001A80020EE04F04550D9264650DA223F50DF624F
:1001B8001ED020EE05F04550D9264650DA223E5092
:1001C800DF6215D020EE06F04550D9264650DA22D7
:1001D8003D50DF620CD020EE07F04550D92646503E
:1001E800DA223C50DF6203D0000E66EC05F0000E08
:1001F800446E000E436E1ED0010E416E3C5047EC1B
:1002080005F0DCEC05F0020E416E3D5047EC05F0C0
:10021800DCEC05F0030E416E3E5047EC05F0DCECDB
:1002280005F0040E416E3F5047EC05F0DCEC05F09C
:10023800434A442A4450800A800F3F0ED8B4435C96
:10024800D8B01200D9D70001876F2904D8B416D0C6
:100258004DD0BF0E11D0860E0FD0DB0E0DD0CF0EB5
:100268000BD0E60E09D0ED0E07D0FD0E05D0870E97
:1002780003D0836823D0EF0E836E20D0000187510E
:10028800000AD8B4E6D7010AD8B4E5D7030AD8B427
:10029800E4D7010AD8B4E3D7070AD8B4E2D7010AE9
:1002A800D8B4E1D7030AD8B4E0D7010AD8B4DFD765
:1002B8000F0AD8B4DED7010AD8B4DDD7000E296EEC
:1002C80035D03F0E11D0060E0FD05B0E0DD04F0E5D
:1002D8000BD0660E09D06D0E07D07D0E05D0070E27
:1002E80003D07F0E01D06F0E836E20D0000187519E
:1002F800000AD8B4E6D7010AD8B4E5D7030AD8B4B7
:10030800E4D7010AD8B4E3D7070AD8B4E2D7010A78
:10031800D8B4E1D7030AD8B4E0D7010AD8B4DFD7F4
:100328000F0AD8B4DED7010AD8B4DDD71200406E60
:100338002904D8B416D04CD0BF0E11D0860E0FD0D9
:10034800DB0E0DD0CF0E0BD0E60E09D0ED0E07D088
:10035800FD0E05D0870E03D0836822D0EF0E836E82
:100368001FD04050000AD8B4E7D7010AD8B4E6D75E
:10037800030AD8B4E5D7010AD8B4E4D7070AD8B431
:10038800E3D7010AD8B4E2D7030AD8B4E1D7010AFF
:10039800D8B4E0D70F0AD8B4DFD7010AD8B4DED76B
:1003A800000E296E34D03F0E11D0060E0FD05B0E12
:1003B8000DD04F0E0BD0660E09D06D0E07D07D0EF6
:1003C80005D0070E03D07F0E01D06F0E836E1FD0AD
:1003D8004050000AD8B4E7D7010AD8B4E6D7030AD0
:1003E800D8B4E5D7010AD8B4E4D7070AD8B4E3D714
:1003F800010AD8B4E2D7030AD8B4E1D7010AD8B4BD
:10040800E0D70F0AD8B4DFD7010AD8B4DED7120074
:100418000001000E00018A6F0001600E0001896F63
:10042800BCEC04F0CEEC05F000018FC08AF00001AE
:100438008EC089F0040E00018B6F3AEC04F0CEEC0C
:1004480005F000018FC088F000018EC087F0000E13
:1004580000018A6F340E0001896F26EC03F0000E4C
:1004680000018A6F020E0001896FBCEC04F0CEEC2B
:1004780005F000018FC08AF000018EC089F0040EDB
:1004880000018B6F3AEC04F0CEEC05F000018FC050
:1004980088F000018EC087F0000E00018A6F380EC8
:1004A8000001896F26EC03F0120087C0D9FF88C0CD
:1004B800DAFFDF2A0A0E87C0D9FF88C0DAFFDF62B9
:1004C8003CD089C0D9FF8AC0DAFFDF2A87C0D9FFAC
:1004D80088C0DAFF000EDF6E060E89C0D9FF8AC019
:1004E800DAFFDF622AD08BC0D9FF8CC0DAFFDF2A9F
:1004F80089C0D9FF8AC0DAFF000EDF6E0A0E8BC0F2
:10050800D9FF8CC0DAFFDF6218D08DC0D9FF8EC04A
:10051800DAFFDF2A8BC0D9FF8CC0DAFF000EDF6E4E
:10052800060E8DC0D9FF8EC0DAFFDF6206D08DC0FF
:10053800D9FF8EC0DAFF000EDF6E12000600EACF88
:100548004CF0E1CF4DF0E2CF4EF0D9CF4FF0DACFFB
:1005580050F0F3CF51F0F4CF52F0F6CF53F0F7CF7D
:1005680054F0F8CF55F0F5CF56F09EAA0ED0D3EC44
:1005780005F08FEC05F0000E66EC05F0000E486EF5
:100588002A0E476E65EC03F09E9A56C0F5FF55C0DB
:10059800F8FF54C0F7FF53C0F6FF52C0F4FF51C034
:1005A800F3FF50C0DAFF4FC0D9FF4EC0E2FF4DC085
:1005B800E1FF4CC0EAFF4BC0E9FF4AC0FBFF49C05E
:1005C800FAFF110000018C6F000EAC6E000EAB6ECE
:1005D80000018CB1AC8800018CA302D0AC8CAB8C30
:1005E80000018CB5AC8E00018CA702D0AB8801D07D
:1005F800AB8A00018CB9AC849E9800018CBBAB8699
:1006080000018CAD02D09D8A01D09D9A9E9A00016E
:100618008CAF02D09D8801D09D9887C0AFFF0001A4
:1006280088C089F089C08AF000018B6B00018A516B
:10063800B06EAC8AAB8E949C948EACB8ACBE01D034
:10064800948C120087C0D9FF88C0DAFFDF50D00F22
:1006580089C0D9FF8AC0DAFFDF6E0001874B882B7B
:100668000001894B8A2B87C0D9FF88C0DAFFDF5089
:10067800D00F89C0D9FF8AC0DAFFDF6E0001874B2F
:10068800882B0001894B8A2B87C0D9FF88C0DAFFE5
:10069800DF50D00F89C0D9FF8AC0DAFFDF6E0001B2
:1006A800874B882B0001894B8A2B87C0D9FF88C0CC
:1006B800DAFFDF50D00F89C0D9FF8AC0DAFFDF6EBA
:1006C80012000001000E436E0001600E426ED4EC71
:1006D80004F0D3EC05F048C043F047C042F0040EE4
:1006E800446E63EC04F0D3EC05F048C041F047C019
:1006F80040F0000E436E340E426EA0EC03F0000E84
:10070800436E020E426ED4EC04F0D3EC05F048C000
:1007180043F047C042F0040E446E63EC04F0D3EC9F
:1007280005F048C041F047C040F0000E436E380E57
:10073800426EA0EC03F0120040C0D9FF41C0DAFFBE
:10074800DF50D00F42C0D9FF43C0DAFFDF6E404A06
:10075800412A424A432A40C0D9FF41C0DAFFDF504C
:10076800D00F42C0D9FF43C0DAFFDF6E404A412AAA
:10077800424A432A40C0D9FF41C0DAFFDF50D00FB8
:1007880042C0D9FF43C0DAFFDF6E404A412A424ADD
:10079800432A40C0D9FF41C0DAFFDF50D00F42C022
:1007A800D9FF43C0DAFFDF6E1200939093921F0EB9
:1007B80000018D6F015083EC05F0000E26EC05F06A
:1007C800000E00018F6F2A0E00018E6F0CEC02F0F4
:1007D800C8EC05F00EEC00F0000E0001886F3C0E2E
:1007E8000001876F000E00018A6F3D0E0001896FBE
:1007F800000E00018C6F3E0E00018B6F000E000191
:100808008E6F3F0E00018D6F59EC02F08AA0E2D77F
:10081800E0EC05F0DFD700EE28F0180EEE6AE806E7
:10082800FDE1250EF66E0A0EF76E000EF86E00EE6C
:1008380060F010EE27F00900F5CFEEFFE550E1502B
:10084800FAE1FE0EF66E090EF76E000EF86E00EE77
:1008580001F010EE27F00900F5CFEEFFE550E1506A
:10086800FAE1000EF86E0001D9EF03F00D0EAFECBF
:1008780005F00A0EAFEC05F0000E00018C6F18D0E1
:100888009EAAFED737EC05F000018D6F89C0D9FF0D
:100898008AC0DAFF00018DC0DFFF00018D51A5EC91
:1008A80005F0ACA2FED70001894B8A2B00018C2BE6
:1008B80000018B5100018C5DD8B01200E1D70D0EFC
:1008C800C1EC05F00A0EC1EC05F0000E456E13D020
:1008D8009EAAFED757EC05F0466E42C0D9FF43C02A
:1008E800DAFF46C0DFFF4650B8EC05F0ACA2FED7F1
:1008F800424A432A452A4450455CD8B01200E8D7FA
:100908000001876F000E956E929092929294929643
:1009180000018705D8A402D080800FD0000187513C
:10092800020AD8A402D0808208D000018751030AA5
:10093800D8A402D0808401D080861200406E000EB8
:10094800956E92909292929492964004D8A402D076
:1009580080800DD04050020AD8A402D0808207D0EF
:100968004050030AD8A402D0808401D080861200A7
:100978000D0EAFEC05F00CD089C0D9FF8AC0DAFFA4
:10098800DF50A5EC05F0ACA2FED70001894B8A2BFD
:1009980089C0D9FF8AC0DAFFDF50D8B41200ECD77B
:1009A8000D0EC1EC05F00BD042C0D9FF43C0DAFFF1
:1009B800DF50B8EC05F0ACA2FED7424A432A42C049
:1009C800D9FF43C0DAFFDF50D8B41200EDD70001D9
:1009D800896F0001885184EC04F000018851030AF2
:1009E800D8A402D0010E01D0000E296E0001895151
:1009F80027EC01F012002C456E74657220506F7759
:100A080065722054696D65204F5554204D4D5353E0
:100A180020666F726D6174000000000000456E74FE
:100A2800657220506F7765722054696D6520494E54
:100A3800204D4D535320666F726D617400000000A5
:100A4800000000000001876F05D08A800BD08A90D3
:100A58008A9208D000018751000AD8B4F8D7010A51
:100A6800D8B4F3D71200F20E2816ABAC03D02890F6
:100A7800ABB02880ABB42884ABB22886AECF87F061
:100A8800000187511200426E4150A2EC04F041501F
:100A9800030AD8A402D0010E01D0000E296E4250DC
:100AA8009BEC01F01200F20E2816ABAC03D0289094
:100AB800ABB02880ABB42884ABB22886AECF40F068
:100AC80040501200406E05D08A800AD08A908A92DF
:100AD80007D04050000AD8B4F9D7010AD8B4F4D7DF
:100AE80012000001886F0D0E0001876FFC0EE82EC2
:100AF800FED7872FFCD70001882FF5D712000001F9
:100B08008E6F00018DC087F00001886B00018E5147
:100B1800E6EC02F01200000E3C6E000E3D6E000E78
:100B28003E6E000E3F6EAAEC00F01200416E0D0EF4
:100B3800406EFC0EE82EFED7402EFCD7412EF7D78C
:100B480012000001876FACAC03D0AC9028B2AC8027
:100B580087C0ADFF12000001886F00018851A5EC25
:100B680005F0ACB21200FDD7406EACAC03D0AC902F
:100B780028B2AC8040C0ADFF1200416E4150B8ECC5
:100B880005F0ACB21200FDD79E9A9F9A9D8AF28C0E
:100B9800F28E1200AECF87F0AECF87F01200AECF44
:100BA80040F0AECF40F01200020E75EC05F01200D6
:0C0BB800020E9AEC05F012008A72120086
:020000040020DA
:08000000FFFFFFFFFFFFFFFF00
:020000040030CA
:0E000000040C191EFF8081FF0FC00FE00F409F
:00000001FF
