:0400000090EF3FF04E
:107F2000000EF86E0001BEEF3FF0016EFA0E00F099
:107F3000E82EFDD7012EFAD71200026E000E036E56
:107F400004D0050E95EC3FF0032A0350025CD8A044
:107F50001200F7D7046E000E056E0BD0000E066EF1
:107F600004D0640E9DEC3FF0062A090E0664F9D792
:107F7000052A0450055CD8B01200F0D7010E076E38
:107F8000000E956E000E926E010E896E09D0010EE4
:107F9000AAEC3FF0075007248C6E07500724076EA9
:107FA0000766F5D7020E896E010E08D0010EAAEC05
:107FB0003FF0075007248C6E07500724076E0766B2
:107FC000F5D7040E896E010E08D0010EAAEC3FF021
:107FD000075007248C6E07500724076E0766F5D7F5
:107FE000080E896E010E08D0010EAAEC3FF0075072
:107FF00007248C6E07500724076E0766F5D7C4D791
:020000040020DA
:08000000FFFFFFFFFFFFFFFF00
:020000040030CA
:0E000000040C191EFF8081FF0FC00FE00F409F
:00000001FF
