:0400000034EF3FF0AA
:107E3200020E3EEC3FF01200F288F292F28CF18CCC
:107E4200F28E120093921DEC3FF08A9263EC3FF0A7
:107E5200FCD7086E075049EC3FF0000E016E085047
:107E62008FEC3FF01200056A046A036A026A016A33
:107E7200000EF86E000123EF3FF0076E0D0E066E46
:107E8200FC0EE82EFED7062EFCD7072EF7D71200DF
:107E9200066E000E956E92909292929492960604BD
:107EA200D8A402D080800DD00650020AD8A402D0F5
:107EB200808207D00650030AD8A402D0808401D061
:107EC20080861200000E0A6E000E096E1ED0010E90
:107ED200076E02502AEC3FF019EC3FF0020E076EDB
:107EE20003502AEC3FF019EC3FF0030E076E0450EA
:107EF2002AEC3FF019EC3FF0040E076E05502AEC15
:107F02003FF019EC3FF0094A0A2A0A50800A800F12
:107F12000A0ED8B4095CD8B01200D9D7066E010493
:107F2200D8B416D04CD0BF0E11D0860E0FD0DB0EB7
:107F32000DD0CF0E0BD0E60E09D0ED0E07D0FD0E00
:107F420005D0870E03D0836822D0EF0E836E1FD038
:107F52000650000AD8B4E7D7010AD8B4E6D7030A14
:107F6200D8B4E5D7010AD8B4E4D7070AD8B4E3D71E
:107F7200010AD8B4E2D7030AD8B4E1D7010AD8B4C7
:107F8200E0D70F0AD8B4DFD7010AD8B4DED7000E83
:107F9200016E34D03F0E11D0060E0FD05B0E0DD005
:107FA2004F0E0BD0660E09D06D0E07D07D0E05D098
:107FB200070E03D07F0E01D06F0E836E1FD00650C6
:107FC200000AD8B4E7D7010AD8B4E6D7030AD8B46E
:107FD200E5D7010AD8B4E4D7070AD8B4E3D7010A2F
:107FE200D8B4E2D7030AD8B4E1D7010AD8B4E0D7AB
:0E7FF2000F0AD8B4DFD7010AD8B4DED71200C8
:020000040020DA
:08000000FFFFFFFFFFFFFFFF00
:020000040030CA
:0E000000040C191EFF8081FF0FC00FE00F409F
:00000001FF
