:0400000010EF3FF0CE
:107DFE0009090909020E05EC3FF01200026E0D0E84
:107E0E00016EFC0EE82EFED7012EFCD7022EF7D700
:107E1E001200FE0EF66E7D0EF76E000EF86E00EE80
:107E2E000BF010EE04F00900F5CFEEFFE550E15037
:107E3E00FAE1000EF86E000179EF3FF0016E000ED0
:107E4E00956E92909292929492960104D8A402D03A
:107E5E0080800DD00150020AD8A402D0808207D0B3
:107E6E000150030AD8A402D0808401D0808612006B
:107E7E00036E025025EC3FF015D03F0E11D0060ECA
:107E8E000FD05B0E0DD04F0E0BD0660E09D06D0EBF
:107E9E0007D07D0E05D0070E03D07F0E01D06F0EDA
:107EAE00836E1FD00350000AD8B4E7D7010AD8B4A6
:107EBE00E6D7030AD8B4E5D7010AD8B4E4D7070A3F
:107ECE00D8B4E3D7010AD8B4E2D7030AD8B4E1D7BD
:107EDE00010AD8B4E0D70F0AD8B4DFD7010AD8B454
:107EEE00DED71200000E0A6E000E096E1ED0010EB5
:107EFE00026E0B503FEC3FF001EC3FF0020E026EB3
:107F0E000C503FEC3FF001EC3FF0030E026E0D50B3
:107F1E003FEC3FF001EC3FF0040E026E0E503FECD2
:107F2E003FF001EC3FF0094A0A2A0A50800A800FFE
:107F3E000B0ED8B4095CD8A0DAD7000E026E0B0E69
:107F4E00016E000E046E0C0E036E000E066E0D0E0C
:107F5E00056E000E086E0E0E076EB7EC3FF0C2D720
:107F6E0001C0D9FF02C0DAFFDF06FF0E01C0D9FF44
:107F7E0002C0DAFFDF623CD003C0D9FF04C0DAFFD3
:107F8E00DF0601C0D9FF02C0DAFF090EDF6EFF0E59
:107F9E0003C0D9FF04C0DAFFDF622AD005C0D9FFC3
:107FAE0006C0DAFFDF0603C0D9FF04C0DAFF090EF0
:107FBE00DF6EFF0E05C0D9FF06C0DAFFDF6218D0F4
:107FCE0007C0D9FF08C0DAFFDF0605C0D9FF06C01B
:107FDE00DAFF090EDF6EFF0E07C0D9FF08C0DAFF09
:107FEE00DF6206D007C0D9FF08C0DAFF090EDF6EC8
:027FFE0012006F
:020000040020DA
:08000000FFFFFFFFFFFFFFFF00
:020000040030CA
:0E000000040C191EFF8081FF0FC00FE00F409F
:00000001FF
